:020000040800F2
:100000000000000041040008E9BE0108F7BE010835
:10001000FDBE010803BF010809BF01080000000080
:100020000000000000000000000000000FBF0108F9
:10003000FD1F000800000000391D0008092000080D
:1000400009200008092000080920000809200008EC
:1000500009200008092000080920000809200008DC
:1000600009200008092000080920000809200008CC
:1000700009200008092000080920000809200008BC
:1004000010B5054C237833B9044B13B10448AFF34E
:1004100000800123237010BDC002002000000000F6
:10042000B8EF010808B5034B1BB103490348AFF30C
:10043000008008BD00000000C4020020B8EF0108E1
:1004400072B6DFF840D01048016841F470010160D5
:100450000E490F4A0F4B914204D053F8040B41F858
:10046000040BF8E74FF000000B490C4A914202D010
:1004700041F8040BFAE71BF057FC1CF047FF1BF098
:1004800037FCFEE70080012088ED00E0000000203E
:10049000C0020020887B0208C0020020A42800209F
:1004A00001F0FF01102A2BDB10F0070F08D010F825
:1004B000013B013A8B422DD010F0070F42B3F6D129
:1004C000F0B441EA012141EA014122F007047FF042
:1004D00000070023F0E80256083C85EA010586EA99
:1004E000010685FA47F5A3FA87F586FA47F6A5FAD5
:1004F00087F68EB9EED1F0BC01F0FF0102F00702E1
:1005000032B110F8013B013A83EA010313B1F8D18B
:100510000020704701387047002D06BF354603386C
:10052000073815F0010F07D1013015F4807F02BFA5
:10053000013015F4C03F0130F0BC0138704700BFF6
:1005400010F8012B11F8013B012A28BF9A42F7D07D
:10055000D01A7047034613F8012B002AFBD1181A52
:100560000138704781F0004102E000BF83F0004392
:1005700030B54FEA41044FEA430594EA050F08BF3E
:1005800090EA020F1FBF54EA000C55EA020C7FEA02
:10059000645C7FEA655C00F0E2804FEA5454D4EB7F
:1005A0005555B8BF6D420CDD2C4480EA020281EA49
:1005B000030382EA000083EA010180EA020281EA81
:1005C0000303362D88BF30BD11F0004F4FEA0131D3
:1005D0004FF4801C4CEA113102D0404261EB4101E2
:1005E00013F0004F4FEA03334CEA133302D0524268
:1005F00063EB430394EA050F00F0A780A4F1010424
:10060000D5F1200E0DDB02FA0EFC22FA05F280185D
:1006100041F1000103FA0EF2801843FA05F3594143
:100620000EE0A5F120050EF1200E012A03FA0EFCC2
:1006300028BF4CF0020C43FA05F3C01851EBE371EC
:1006400001F0004507D54FF0000EDCF1000C7EEB09
:1006500000006EEB0101B1F5801F1BD3B1F5001F47
:100660000CD349085FEA30004FEA3C0C04F1010466
:100670004FEA445212F5800F80F09A80BCF1004F8F
:1006800008BF5FEA500C50F1000041EB045141EA11
:10069000050130BD5FEA4C0C404141EB010111F412
:1006A000801FA4F10104E9D191F0000F04BF0146BD
:1006B0000020B1FA81F308BF2033A3F10B03B3F19B
:1006C00020020CDA0C3208DD02F1140CC2F10C022B
:1006D00001FA0CF021FA02F10CE002F11402D8BF89
:1006E000C2F1200C01FA02F120FA0CFCDCBF41EA55
:1006F0000C019040E41AA2BF01EB0451294330BD24
:100700006FEA04041F3C1CDA0C340EDC04F1140400
:10071000C4F1200220FA04F001FA02F340EA0300D7
:1007200021FA04F345EA030130BDC4F10C04C4F11D
:10073000200220FA02F001FA04F340EA03002946FD
:1007400030BD21FA04F0294630BD94F0000F83F447
:10075000801306BF81F480110134013D4EE77FEA2A
:10076000645C18BF7FEA655C29D094EA050F08BF76
:1007700090EA020F05D054EA000C04BF1946104657
:1007800030BD91EA030F1EBF0021002030BD5FEA9B
:10079000545C05D14000494128BF41F0004130BDC3
:1007A00014F580043CBF01F5801130BD01F0004517
:1007B00045F0FE4141F470014FF0000030BD7FEA8A
:1007C000645C1ABF194610467FEA655C1CBF0B4685
:1007D000024650EA013406BF52EA033591EA030F9C
:1007E00041F4002130BD00BF90F0000F04BF002194
:1007F000704730B54FF4806404F132044FF00005C7
:100800004FF0000150E700BF90F0000F04BF00213F
:10081000704730B54FF4806404F1320410F00045A5
:1008200048BF40424FF000013EE700BF42004FEAA0
:10083000E2014FEA31014FEA02701FBF12F07F431D
:1008400093F07F4F81F06051704732F07F4208BFD4
:10085000704793F07F4F04BF41F40021704730B5DB
:100860004FF4607401F0004521F000411CE700BF27
:1008700050EA010208BF704730B54FF000050AE0AA
:1008800050EA010208BF704730B511F0004502D5AB
:10089000404261EB41014FF4806404F132045FEAAD
:1008A000915C3FF4D8AE4FF003025FEADC0C18BF56
:1008B00003325FEADC0C18BF033202EBDC02C2F148
:1008C000200300FA03FC20FA02F001FA03FE40EADA
:1008D0000E0021FA02F11444BDE600BF70B54FF0DE
:1008E000FF0C4CF4E06C1CEA11541DBF1CEA1355BC
:1008F00094EA0C0F95EA0C0F00F0DEF82C4481EA24
:10090000030621EA4C5123EA4C5350EA013518BF43
:1009100052EA033541F4801143F4801338D0A0FB30
:1009200002CE4FF00005E1FB02E506F00042E0FBDD
:1009300003E54FF00006E1FB03569CF0000F18BFE3
:100940004EF0010EA4F1FF04B6F5007F64F540748B
:1009500004D25FEA4E0E6D4146EB060642EAC6211E
:1009600041EA55514FEAC52040EA5E504FEACE2E8B
:10097000B4F1FD0C88BFBCF5E06F1ED8BEF1004F8E
:1009800008BF5FEA500E50F1000041EB045170BD0A
:1009900006F0004646EA010140EA020081EA03014E
:1009A000B4EB5C04C2BFD4EB0C0541EA045170BD4A
:1009B00041F480114FF0000E013C00F3AB8014F1C4
:1009C000360FDEBF002001F0004170BDC4F100040D
:1009D000203C35DA0C341BDC04F11404C4F120058E
:1009E00000FA05F320FA04F001FA05F240EA0200E9
:1009F00001F0004221F0004110EBD37021FA04F61F
:100A000042EB06015EEA430E08BF20EAD37070BDD8
:100A1000C4F10C04C4F1200500FA04F320FA05F037
:100A200001FA04F240EA020001F0004110EBD37039
:100A300041F100015EEA430E08BF20EAD37070BDA9
:100A4000C4F1200500FA05F24EEA020E20FA04F382
:100A500001FA05F243EA020321FA04F001F0004131
:100A600021FA04F220EA020000EBD3705EEA430EA2
:100A700008BF20EAD37070BD94F0000F0FD101F0D1
:100A80000046400041EB010111F4801F08BF013C0A
:100A9000F7D041EA060195F0000F18BF704703F048
:100AA0000046520043EB030313F4801F08BF013DCF
:100AB000F7D043EA0603704794EA0C0F0CEA13558B
:100AC00018BF95EA0C0F0CD050EA410618BF52EA45
:100AD0004306D1D181EA030101F000414FF000004B
:100AE00070BD50EA410606BF1046194652EA430659
:100AF00019D094EA0C0F02D150EA013613D195EACD
:100B00000C0F05D152EA03361CBF104619460AD114
:100B100081EA030101F0004141F0FE4141F470011E
:100B20004FF0000070BD41F0FE4141F4780170BD0E
:100B300070B54FF0FF0C4CF4E06C1CEA11541DBF73
:100B40001CEA135594EA0C0F95EA0C0F00F0A7F875
:100B5000A4EB050481EA030E52EA03354FEA0131A2
:100B600000F088804FEA03334FF0805545EA1313B5
:100B700043EA12634FEA022245EA111545EA10657D
:100B80004FEA00260EF000419D4208BF964244F114
:100B9000FD0404F5407402D25B084FEA3202B61A33
:100BA00065EB03055B084FEA32024FF480104FF407
:100BB000002CB6EB020E75EB030E22BFB61A75467B
:100BC00040EA0C005B084FEA3202B6EB020E75EB0E
:100BD000030E22BFB61A754640EA5C005B084FEA76
:100BE0003202B6EB020E75EB030E22BFB61A754643
:100BF00040EA9C005B084FEA3202B6EB020E75EB4E
:100C0000030E22BFB61A754640EADC0055EA060E0E
:100C100018D04FEA051545EA16754FEA06164FEA51
:100C2000C30343EA52734FEAC2025FEA1C1CC0D1FD
:100C300011F4801F0BD141EA00014FF000004FF08A
:100C4000004CB6E711F4801F04BF01430020B4F14B
:100C5000FD0C88BFBCF5E06F3FF6AFAEB5EB030C03
:100C600004BFB6EB020C5FEA500C50F1000041EB00
:100C7000045170BD0EF0004E4EEA113114EB5C04CD
:100C8000C2BFD4EB0C0541EA045170BD41F48011A0
:100C90004FF0000E013C90E645EA060E8DE60CEAA8
:100CA000135594EA0C0F08BF95EA0C0F3FF43BAFC5
:100CB00094EA0C0F0AD150EA01347FF434AF95EA7C
:100CC0000C0F7FF425AF104619462CE795EA0C0F60
:100CD00006D152EA03353FF4FDAE1046194622E72D
:100CE00050EA410618BF52EA43067FF4C5AE50EA07
:100CF00041047FF40DAF52EA43057FF4EBAE12E7F7
:100D00004FF0FF3C06E000BF4FF0010C02E000BFD7
:100D10004FF0010C4DF804CD4FEA410C7FEA6C5CBA
:100D20004FEA430C18BF7FEA6C5C1BD001B050EA5D
:100D3000410C0CBF52EA430C91EA030F02BF90EA48
:100D4000020F0020704710F1000F91EA030F58BF07
:100D5000994208BF90422CBFD8176FEAE37040F069
:100D6000010070474FEA410C7FEA6C5C02D150EA07
:100D7000013C07D14FEA430C7FEA6C5CD6D152EAC2
:100D8000033CD3D05DF8040B704700BF8446104687
:100D900062468C461946634600E000BF01B5FFF786
:100DA000B7FF002848BF10F1000F01BD4DF808ED56
:100DB000FFF7F4FF0CBF012000205DF808FB00BF27
:100DC0004DF808EDFFF7EAFF34BF012000205DF881
:100DD00008FB00BF4DF808EDFFF7E0FF94BF0120CE
:100DE00000205DF808FB00BF4DF808EDFFF7CEFFCF
:100DF00094BF012000205DF808FB00BF4DF808ED0E
:100E0000FFF7C4FF34BF012000205DF808FB00BFDE
:100E10004A0011D212F5001211D20DD56FF4787379
:100E2000B3EB62520ED44FEAC12343F0004343EACE
:100E3000505323FA02F070474FF00000704750EA19
:100E4000013002D14FF0FF3070474FF00000704783
:100E50004FEA4102B2F1E04324BFB3F5001CDCF1DC
:100E6000FE5C0DD901F0004C4FEAC0024CEA507014
:100E7000B2F1004F40EB830008BF20F00100704743
:100E800011F0804F21D113F13872BCBF01F0004046
:100E9000704741F480114FEA5252C2F11802C2F178
:100EA000200C10FA0CF320FA02F018BF40F00100F9
:100EB0004FEAC1234FEAD32303FA0CFC40EA0C00AB
:100EC00023FA02F34FEA4303CCE77FEA625307D1E8
:100ED00050EA01331EBF4FF0FE4040F4400070471F
:100EE00001F0004040F0FE4040F40000704700BFB9
:100EF0007BB972B90029BEBF00204FF0004106E067
:100F000008BF00281CBF6FF000414FF0FF3000F019
:100F1000F7B9ADF1080C6DE904CE002909DB002B0F
:100F20001ADB00F087F8DDF804E0DDE9022304B005
:100F30007047404261EB4101002B1BDB00F07AF867
:100F4000DDF804E0DDE9022304B0404261EB410139
:100F5000524263EB43037047524263EB430300F09A
:100F600069F8DDF804E0DDE9022304B0404261EBFA
:100F700041017047524263EB430300F05BF8DDF838
:100F800004E0DDE9022304B0524263EB43037047FF
:100F900053B94AB9002908BF00281CBF4FF0FF31E0
:100FA0004FF0FF3000F0ACB9ADF1080C6DE904CEA4
:100FB00000F040F8DDF804E0DDE9022304B07047FA
:100FC00038B50022002304460D46FFF7F9FE28B984
:100FD00020462946BDE8384000F00AB8204605F111
:100FE000004100F005F8404261EB410138BD00BF0F
:100FF000D0B500220D4B06460F46FFF76FFCFFF7FA
:1010000007FF0446FFF7F0FB0022094BFFF766FCE1
:1010100002460B4630463946FFF7A8FAFFF7F8FEBE
:101020000022234610431946D0BD00BF0000F03D0A
:101030000000F0412DE9F047089E04468846002B49
:101040004BD18A42154667D9B2FA82F24AB1C2F14F
:10105000200701FA02F320FA07F7954047EA030850
:1010600094404FEA154E230CB8FBFEF71FFA85FC9F
:101070000EFB178843EA084307FB0CF1994209D994
:10108000EB1807F1FF3080F01B81994240F2188184
:10109000023F2B445B1AA4B2B3FBFEF00EFB1033ED
:1010A00044EA034400FB0CFCA44509D92C1900F1C7
:1010B000FF3380F00781A44540F2048102382C44BC
:1010C00040EA0740A4EB0C0400271EB1D4400023E3
:1010D000C6E900433946BDE8F0878B4209D9002EA6
:1010E00000F0EB800027C6E9000138463946BDE82C
:1010F000F087B3FA83F7002F47D18B4202D38242A5
:1011000000F2FA80841A61EB030301209846002E56
:10111000E0D0C6E90048DDE702B9FFDEB2FA82F2AC
:10112000002A40F08F80491B4FEA154E1FFA85F8C0
:101130000127B1FBFEFC230C0EFB1C1143EA01430B
:1011400008FB0CF1994207D9EB180CF1FF3002D2E1
:10115000994200F2CD808446591AA3B2B1FBFEF049
:101160000EFB101443EA044408FB00F8A04507D91D
:101170002C1900F1FF3302D2A04500F2B6801846C8
:10118000A4EB080440EA0C409FE7C7F1200CBB40E9
:1011900022FA0CFE4EEA030E01FA07F420FA0CF5CF
:1011A00021FA0CF34FEA1E482543B3FBF8F92C0C47
:1011B00008FB19331FFA8EFA44EA034309FB0AF4C9
:1011C0009C4202FA07F200FA07F10BD91EEB030367
:1011D00009F1FF3080F087809C4240F28480A9F1C1
:1011E000020973441B1BADB2B3FBF8F008FB1033CC
:1011F00045EA034400FB0AFAA24508D91EEB0404A1
:1012000000F1FF336BD2A24569D90238744440EA39
:101210000940A0FB0289A4EB0A044C45C2464B4698
:1012200054D351D0002E69D0B1EB0A0564EB03040E
:1012300004FA0CFCFD40FC404CEA0505C6E90054EC
:10124000002747E7C2F1200320FA03F7954001FA8F
:1012500002F021FA03F34FEA154E3843010CB3FBB9
:10126000FEF71FFA85F80EFB173341EA034107FB2F
:1012700008F38B4204FA02F407D9691807F1FF3C1E
:101280002FD28B422DD9023F2944CB1A81B2B3FB16
:10129000FEF00EFB103341EA034100FB08F38B42E2
:1012A00007D9691800F1FF3C17D28B4215D90238D3
:1012B0002944C91A40EA07473BE73746304609E761
:1012C0000746E7E61846FBE64145ABD2B8EB020A13
:1012D00069EB0E0201381346A4E76046E9E71846B9
:1012E00095E76746D1E781467CE702382C4447E71B
:1012F000ACF1020C2B442FE7384608E73746E9E605
:10130000704700BF80B584B000AF78607B68002B69
:1013100001D1002319E07868FFF71CF9F860FB6839
:101320000133184600F0DAFBB860BB68002B01D12E
:1013300000230AE0FA687968B8681CF09FFCBA6874
:10134000FB68134400221A70BB6818461037BD466C
:1013500080BD90B587B000AF786039607B68002BA6
:1013600002D14FF0FF3326E07B683B6100F04CFC7C
:1013700003460C4618461CF047FB00237B6115E032
:101380001CF066FB0346FB607B693A69D0183A683B
:101390007B69D31A042B28BF04231A4607F10C03D8
:1013A00019461CF00AF87B6904337B617A693B6853
:1013B0009A42E5DB002318461C37BD4690BD80B439
:1013C00087B000AFF860B9607A603B604FF0FF33E0
:1013D0007B61FB68002B01D17B690EE0FB68BA687A
:1013E0001A60FB687A685A60FB683A6A9A60FB6820
:1013F0003A68DA6000237B617B6918461C37BD467A
:101400005DF8047B704780B58AB000AFF860B960C2
:101410007A604FF0FF33FB61FB68002B05D0BB689F
:10142000002B02D07B68002B01D1FB6998E0FB68A0
:101430009A68FB685B689A4203D10023FB61FB69F1
:101440008EE0FB685A68FB689B68D31A7A689342FF
:10145000A8BF1346FB61FB697B62BB683B62FB680C
:10146000DA68FB689B681A44FB685B689A4224DD73
:10147000FB68DA68FB689B681344FA68526893FB60
:10148000F2F102FB01F29B1ABB617B6A7B61FB6894
:101490001A68BB6913443B617B691A46396A38692B
:1014A0001BF08BFFFB689A687B691A44FB689A60A3
:1014B0007A6A7B69D31A7B622EE0FB68DA68FB6884
:1014C0009B681A447B6A1A44FB685B689A4223DD76
:1014D000FB68DA68FB689B681344BB61FB685A6869
:1014E000BB69D31A7B61FB681A68BB6913443B6113
:1014F0007B691A46396A38691BF05FFF7B693A6A73
:1015000013443B62FB689A687B691A44FB689A60E3
:101510007A6A7B69D31A7B627B6A002B1FDDFB68CA
:10152000DA68FB689B681344FA68526893FBF2F12F
:1015300002FB01F29B1ABB617B6A7B61FB681A6844
:10154000BB6913443B617B691A46396A38691BF0F1
:1015500034FFFB689A687B691A44FB689A60FB69F0
:1015600018462837BD4680BD80B58AB000AFF86008
:10157000B9607A604FF0FF33FB61FB68002B05D048
:10158000BB68002B02D07B68002B01D1FB6969E0AE
:10159000FB689B68002B03D10023FB61FB6961E0C2
:1015A000FB689B687A689342A8BF1346FB61FB699E
:1015B0007B62BB683B62FB68DA687B6A1A44FB6843
:1015C0005B689A422EDBFB68DB68BB61FB685A688C
:1015D000FB68DB68D31A7B61FB681A68BB6913443C
:1015E0003B617B691A463969386A1BF0E6FEFB6885
:1015F000DA687B691344FA68526893FBF2F102FBE4
:1016000001F29A1AFB68DA60FB689A687B69D21A61
:10161000FB689A607A6A7B69D31A7B627B693A6A53
:1016200013443B627B6A002B1BDDFB68DB68BB61FC
:101630007B6A7B61FB681A68BB6913443B617B6909
:101640001A463969386A1BF0B8FEFB68DA687B69AC
:101650001A44FB68DA60FB689A687B69D21AFB68F7
:101660009A60FB6918462837BD4680BD80B485B0B6
:1016700000AF78604FF0FF33FB607B68002B02D037
:101680007B689B68FB60FB6818461437BD465DF8B5
:10169000047B704780B485B000AF78604FF0FF33B3
:1016A000FB607B68002B07D07B6800229A607B6818
:1016B0000022DA600023FB60FB6818461437BD4641
:1016C0005DF8047B704700000FB480B5C2B000AF76
:1016D0003B1D18464FF480731A4600211BF091FE03
:1016E0003B1D4FF48072002118461BF08AFE07F55F
:1016F0008A723B461A603B46381D1B68D7F810219A
:101700004FF480711CF0CCFBC7F804013B1D194657
:1017100006481AF08DFAD7F80431184607F5847791
:10172000BD46BDE8804004B0704700BF04F001082A
:1017300080B400AF034B1B781846BD465DF8047BB0
:10174000704700BF0000002080B483B000AF0346A4
:10175000FB71FB79042B01D9054B03E0FB79054AAA
:1017600052F8233018460C37BD465DF8047B7047AD
:1017700008F001080400002080B485B000AF786054
:101780004FF0FF33FB60084B1B68002B04D1064A67
:101790007B6813600023FB60FB6818461437BD4666
:1017A0005DF8047B704700BFDC02002090B589B073
:1017B00002AFF860B9607A603B6000237B61114B37
:1017C0001B68002B18D00F4B1B685B68002B13D0D5
:1017D0000C4B1B685B681B68002B0DD0094B1B680A
:1017E0005B681C68FB6A0193BB6A00933B687A687C
:1017F000B968F868A04778617B6918461C37BD4610
:1018000090BD00BFDC02002080B584B000AF7860DE
:101810004FF0FF33FB600D4B1B68002B11D00B4BBF
:101820001B685B68002B0CD0084B1B685B685B680F
:10183000002B06D0054B1B685B685B68786898478F
:10184000F860FB6818461037BD4680BDDC020020FA
:1018500080B582B000AF78600C4B1B68002B11D0B4
:101860000A4B1B685B68002B0CD0084B1B685B683D
:10187000DB68002B06D0054B1B685B68DB6878686B
:10188000984700BF00BF0837BD4680BDDC0200207E
:1018900080B584B000AF78600023FB600D4B1B68FF
:1018A000002B11D00B4B1B685B68002B0CD0094B35
:1018B0001B685B681B69002B06D0064B1B685B68C6
:1018C0001B6978689847F860FB6818461037BD4672
:1018D00080BD00BFDC02002080B584B000AF78601E
:1018E0000023FB600D4B1B68002B11D00B4B1B68BA
:1018F0005B68002B0CD0094B1B685B685B69002B95
:1019000006D0064B1B685B685B6978689847F8608F
:10191000FB6818461037BD4680BD00BFDC020020C2
:1019200080B584B000AF78600023FB600D4B1B686E
:10193000002B11D00B4B1B685B68002B0CD0094BA4
:101940001B685B689B69002B06D0064B1B685B68B5
:101950009B6978689847F860FB6818461037BD4661
:1019600080BD00BFDC02002080B584B000AF78608D
:101970000023FB600D4B1B68002B11D00B4B1B6829
:101980005B68002B0CD0094B1B685B68DB69002B84
:1019900006D0064B1B685B68DB6978689847F8607F
:1019A000FB6818461037BD4680BD00BFDC02002032
:1019B00080B586B000AFF860B9607A6000237B61C3
:1019C0000E4B1B68002B13D00C4B1B685B68002B65
:1019D0000ED00A4B1B685B681B6A002B08D0074BB4
:1019E0001B685B681B6A7A68B968F8689847786111
:1019F0007B6918461837BD4680BD00BFDC02002059
:101A000080B584B000AF786039600023FB600E4B76
:101A10001B68002B12D00C4B1B685B68002B0DD091
:101A2000094B1B685B685B6A002B07D0064B1B6881
:101A30005B685B6A396878689847F860FB681846A5
:101A40001037BD4680BD00BFDC02002080B584B0E9
:101A500000AF78600023FB600D4B1B68002B11D09A
:101A60000B4B1B685B68002B0CD0094B1B685B6839
:101A70009B6A002B06D0064B1B685B689B6A7868E4
:101A80009847F860FB6818461037BD4680BD00BF18
:101A9000DC02002080B584B000AF78600023FB60DA
:101AA0000D4B1B68002B11D00B4B1B685B68002B88
:101AB0000CD0094B1B685B68DB6A002B06D0064B19
:101AC0001B685B68DB6A78689847F860FB681846B3
:101AD0001037BD4680BD00BFDC02002080B584B059
:101AE00000AF78600023FB600D4B1B68002B12D009
:101AF0000B4B1B685B68002B0DD0094B1B685B68A8
:101B00001B6C002B07D0064B1B685B681B6C7A684C
:101B100010469847F860FB6818461037BD4680BDF0
:101B2000DC02002080B582B000AF78600C4B1B68EF
:101B3000002B11D00A4B1B685B68002B0CD0084BA4
:101B40001B685B685B6C002B06D0054B1B685B68F1
:101B50005B6C7868984700BF00BF0837BD4680BD02
:101B6000DC02002080B584B000AF78600023FB6009
:101B7000114B1B68002B1AD00F4B1B685B68002BA6
:101B800015D00D4B1B685B681B6C002B0FD00A4BEC
:101B90001B685B681B6C7A6810469847F860FB68A6
:101BA000002B04D07A680021F8681BF02AFCFB683F
:101BB00018461037BD4680BDDC02002080B584B0D9
:101BC00000AF786039600023FB600E4B1B68002B70
:101BD00013D00C4B1B685B68002B0ED0094B1B68A5
:101BE0005B689B6C002B08D0064B1B685B689B6C8A
:101BF0003A68114678689847F860FB6818461037CD
:101C0000BD4680BDDC02002090B583B000AF4FF030
:101C100000034FF00004C7E900340E4B1B68002B93
:101C200011D00C4B1B685B68002B0CD0094B1B6858
:101C30005B68DB6C002B06D0064B1B685B68DB6CBB
:101C40009847C7E90001D7E90034184621460C3708
:101C5000BD4690BDDC02002080B582B000AF4FF0E1
:101C6000FF337B600C4B1B68002B10D00A4B1B68AA
:101C70005B68002B0BD0084B1B685B681B6D002B4F
:101C800005D0054B1B685B681B6D984778607B68C7
:101C900018460837BD4680BDDC02002080B400AF86
:101CA00000231846BD465DF8047B704772B61548A0
:101CB0001549026841EA0201016014484FF0010130
:101CC000016013484168016001688A884FF0100381
:101CD00042EA03028A80D1F800C04FF002030CF1FF
:101CE000240C0CF1040CDCF80000DCF814E0DCF847
:101CF00018200CF1200C8CF3098862B683F3148849
:101D0000104700BF20ED00E00000FFFFEC260020A0
:101D1000E4260020EFF3108072B6704700BF18462B
:101D200080F31088704700BF02484FF08051016077
:101D3000704700BF04ED00E0EFF3108C72B6194A53
:101D4000126822B12DE900509047BDE80050EFF332
:101D500009801EF0100F01D120ED108B40F804ED2A
:101D600020E9F01F104D4FF010082E683060B78842
:101D700027EA0807B78068682860878847EA080765
:101D800087800168B1E8F01F51F804EB1EF0100FD6
:101D900001D1B1EC108B81F309888CF31088704766
:101DA00000BF0000E8020020E426002080B483B0D9
:101DB00000AF03463960FB7197F90730002B0ADB4F
:101DC0003B68DAB20C4997F907301201D2B20B44E2
:101DD00083F800230AE03B68DAB20849FB7903F094
:101DE0000F03043B1201D2B20B441A7600BF0C372A
:101DF000BD465DF8047B704700E100E000ED00E0C7
:101E000080B582B000AF78607B68013BB3F1807F22
:101E100001D301230FE00A4A7B68013B53600F2185
:101E20004FF0FF30FFF7C2FF054B00229A60044BD2
:101E300007221A60002318460837BD4680BD00BF40
:101E400010E000E090B585B002AF1D4B1B68002B81
:101E500004D01B4B1B68B3F57A7F01D2194B2AE0E3
:101E600000230093184B002207214FF0FF3000F0B1
:101E70000FF9134B1B68154AA2FB03239B09144A55
:101E80001360144A4FF000034FF00004C2E900341D
:101E90000B4B1B680D4AA2FB03239B091846FFF757
:101EA000AFFF78607B68012B01D10B4B03E00B4B3C
:101EB00001221A60002318460C37BD4690BD00BFB2
:101EC0009C0000200004000255270008D34D62103A
:101ED000A8260020A026002002040002E402002020
:101EE00080B485B000AF78607B6803F00703FB60C7
:101EF0000C4BDB68BB60BA684FF6FF031340BB6056
:101F0000FB681A02BB68134343F0BF6343F400331A
:101F1000BB60044ABB68D36000BF1437BD465DF8A0
:101F2000047B704700ED00E080B483B000AF03464F
:101F3000FB7197F90730002B0BDBFB7903F01F02D5
:101F4000074997F907305B09012000FA02F241F8CE
:101F5000232000BF0C37BD465DF8047B704700BFEF
:101F600000E100E080B483B000AF03463960FB714C
:101F700097F90730002B0ADB3B68DAB20C4997F976
:101F800007301201D2B20B4483F800230AE03B6809
:101F9000DAB20849FB7903F00F03043B1201D2B215
:101FA0000B441A7600BF0C37BD465DF8047B7047C2
:101FB00000E100E000ED00E080B483B000AFEFF39B
:101FC00005837B607B6818460C37BD465DF8047B53
:101FD0007047000080B500AF054819F029FEFFF7F3
:101FE000EBFF03461A460349034819F021FEFEE7BA
:101FF00010F001081825020818F0010880B500AF9C
:10200000FFF7E8FF00BF80BD80B582B000AFFFF7EB
:1020100081FE7860154B1B680133144A13607868A1
:10202000FFF77EFEFFF7C8FF38603B680F3B3B6061
:102030000F4A3B6852F82330002B05D00C4A3B680E
:1020400052F82330984701E0FFF7C4FFFFF762FE24
:102050007860064B1B68013B044A13607868FFF701
:102060005FFE00BF0837BD4680BD00BFE002002014
:10207000D822002080B500AF034B044A9A600720A5
:10208000FFF72EFF00BF80BD00ED00E0000000085C
:1020900080B586B000AFF8607B600B467B8113464D
:1020A0003B817B68002B01D1164B26E0FB68EF2BB0
:1020B00005D9FB68B3F1FF3F01D0134B1DE07B89CD
:1020C000072B01D9114B18E0FFF724FE7861FB685C
:1020D00001330F497A6841F82320FB685BB2184648
:1020E000FFF722FFFB685BB27A8911461846FFF7BB
:1020F00039FF7869FFF714FE002318461837BD46EC
:1021000080BD00BF010900020009000205090002AC
:10211000D822002080B500AFFFF706FE00BF80BDCB
:1021200080B582B000AFFFF7F5FD786001F082FB6B
:102130000346283B0B4A53600A4B1A68094B5B68FD
:102140009A4209D0084B1B88002B05D17868FFF70D
:10215000E7FDFFF7E9FD02E07868FFF7E1FD0837EA
:10216000BD4680BDE4260020E026002080B400AFFC
:1021700072B6FEE780B586B000AF786039607B68E4
:10218000DB687B617B689B687A6913443B617B6891
:102190009B681A464FF0CA3178691BF032F97B69A7
:1021A0004FF0CC321A603B69483B3B613B69FB60B6
:1021B000FB684FF004321A60FB684FF005325A603A
:1021C000FB684FF006329A60FB684FF00732DA6026
:1021D000FB684FF008321A61FB684FF009325A6110
:1021E000FB684FF010329A61FB684FF01132DA61F0
:1021F000FB6800221A62FB686FF002025A627B6879
:102200001A69FB689A62FB684FF00132DA62FB6878
:102210004FF002321A63FB684FF003325A63FB68D7
:102220004FF012329A63084AFB68DA63074AFB6888
:102230001A64FB684FF080725A647B683A691A60CE
:1022400000BF1837BD4680BD6D2100082D2F000846
:1022500080B584B000AF78600823FB607B68DB68E2
:1022600003F148027B68DA607B68DB68BB60064B81
:102270001B68FA68B968184602F040FF0346184622
:102280001037BD4680BD00BF9C26002090B585B0AC
:1022900000AF0E4B1B68002B06D04FF000034FF031
:1022A0000004C7E902340AE0FFF734FD7860084B08
:1022B000D3E90034C7E902347868FFF731FDD7E984
:1022C0000234184621461437BD4690BDE002002076
:1022D000A026002080B582B000AF786039603868F1
:1022E00000F089F9034618460837BD4680BD80B521
:1022F00084B000AFF860B9607A607968B86800F0BF
:1023000086F9034618461037BD4680BD80B582B0B9
:1023100000AF78603960386800F062F900BF0837B4
:10232000BD4680BD80B582B000AF78607B6818463E
:1023300001F07CF800BF0837BD4680BD80B58EB087
:1023400000AFF860B9607A603B6000237B630023D4
:102350003B6307F114031822002118461BF051F8C3
:102360007B68FB617B6C9BB23B83FB687B62BB68D9
:102370007B613B683B6207F1140207F12C031146B5
:10238000184600F0DDFE38633B6B002B01D07B6B01
:1023900002E0FB6A7B637B6B18463837BD4680BD25
:1023A00080B584B000AF78604FF0FF33FB607B688E
:1023B000002B09D07B68BB60B86800F037FF03468C
:1023C000002B01D10023FB60FB6818461037BD4687
:1023D00080BD80B400AFFEE780B582B000AF78600A
:1023E000786802F0A1FB0346002B01D1012300E035
:1023F000002318460837BD4680BD80B582B000AFC7
:1024000078607B684FF0FF31184602F049FC0346C4
:10241000002B01D1012300E0002318460837BD46F8
:1024200080BD80B582B000AF78607B68184602F04E
:102430000FFD0346002B01D1012300E000231846C5
:102440000837BD4680BD80B582B000AF78607B683C
:10245000184602F0C5FB0346002B01D1012300E022
:10246000002318460837BD4680BD80B584B000AF54
:10247000F860B9607A607B689BB2BA6891B2FA681A
:10248000184602F0DBF80346002B01D1012300E0DF
:10249000002318461037BD4680BD80B582B000AF1E
:1024A000786039603B68B3F1FF3F02D14FF0FF33F2
:1024B0003B607B683A681146184602F083F9034690
:1024C000002B01D1012300E0002318460837BD4648
:1024D00080BD80B582B000AF78607B68184602F09E
:1024E0001FFA0346002B01D1012300E00023184608
:1024F0000837BD4680BD80B582B000AF78607B688C
:10250000184602F0FDF80346002B01D1012300E03C
:10251000002318460837BD4680BD000080B584B052
:1025200000AF78600023FB607B68002B0DDD094B5A
:102530001B687A681146184602F0BDFDF8607B689A
:102540001A460021F8681AF05CFFFB68184610373D
:10255000BD4680BD9C26002080B582B000AF78606B
:10256000044B1B687968184602F0D8FD00BF083795
:10257000BD4680BD9C26002098B500AFFFF786FEC3
:1025800003460C461846214698BD80B400AFFEE7CE
:1025900080B586B002AFF860B9607A603B60F868D9
:1025A000BB6899B27B689AB2BB6900933B68FFF73E
:1025B0006FFD034618461037BD4680BD80B582B01A
:1025C00000AF4FF0FF337B600448FFF7D5F8786029
:1025D0007B6818460837BD4680BD00BF84250208C9
:1025E00080B582B000AF78607868FFF79BFA00BFD3
:1025F0000837BD4680BD80B582B000AF786078688E
:10260000FFF76CFA034618460837BD4680BD80B513
:1026100082B000AF7860396039687868FFF7CEFA29
:10262000034618460837BD4680BD000080B400AFA1
:10263000034B10221A6000BFBD465DF8047B704753
:10264000DC26002080B582B000AFFFF7FBFB78608E
:102650007B68002B07D0074819F0EAFA064819F002
:1026600005FE7B6802E0FFF721FB7B681846083710
:10267000BD4680BD30F0010838F0010880B582B059
:1026800000AFFFF7D3FF02F0A9FC78607B68002B56
:1026900008D02B4819F0CCFA79682A4819F0C8FA02
:1026A0007B6848E0FFF7E6FC00F0BCFA78607B68E6
:1026B000002B07D0224819F0BBFA234819F0D6FDA9
:1026C0007B6838E000F016FC01F07AFF78607B68E8
:1026D000002B01D07B682EE002F0EEF978607B6879
:1026E000002B01D07B6826E001F0FAFB78607B6864
:1026F000002B07D0124819F09BFA144819F0B6FDC8
:102700007B6818E001F034F978607B68002B07D013
:102710000B4819F08DFA0E4819F0A8FD7B680AE005
:1027200000F048F800F016FB78607B68002B01D0C1
:102730007B6800E0002318460837BD4680BD00BF17
:1027400030F001084CF0010868F001087CF0010845
:1027500090F0010898B500AF0E4B1B68002B09D113
:102760000D4BD3E900124B1C42F100040A4AC2E9A6
:1027700000340EE0084BD3E900124B1C42F1000478
:10278000054AC2E9003400F025F800F0A5F901F08F
:102790002DFB98BDE4020020A026002090B400AFDD
:1027A000034BD3E9003418462146BD4690BC704720
:1027B000A026002080B400AF054B00221A60044B15
:1027C0000A22DA8000BFBD465DF8047B704700BF77
:1027D000B826002098B500AF124B1A68124B1B6840
:1027E0009A420FD0104B1B680E4A13600F4BD3E96F
:1027F00000349AB20B4BDB8813449BB2013B9AB274
:10280000084B9A80074B9A88084BD3E900349BB257
:102810009A4204D1034B00221A6000F0CBFE00BFA5
:1028200098BD00BFB8260020E4260020A026002086
:1028300080B483B000AF78607B687A685A607B6848
:102840007A681A6000BF0C37BD465DF8047B70479C
:1028500080B483B000AF786039607B685A683B68A9
:102860005A603B687A681A607B685B683A681A60ED
:102870007B683A685A6000BF0C37BD465DF8047B40
:10288000704780B582B000AF786039607B681B68A4
:1028900039681846FFF7DCFF00BF0837BD4680BD2A
:1028A00080B483B000AF78607B685B687A68126838
:1028B0001A607B681B687A6852685A607B680022DD
:1028C0005A607B6800221A6000BF0C37BD465DF875
:1028D000047B704780B483B000AF78607B685B682E
:1028E0007A689A420CBF01230023DBB218460C37EA
:1028F000BD465DF8047B704780B400AFFEE780B54D
:1029000082B000AF78600B467B807B689B8803F0C9
:102910000403002B1FD07B682833184600F060FFAB
:102920007B689B8823F004039AB27B689A807B685B
:102930007A88DA807B689B8843F004039AB27B68CC
:102940009A807B6803F128027B68DB881946104671
:1029500000F01CFF02E07B687A88DA8000BF08374D
:10296000BD4680BD80B586B000AF786039603B68F9
:1029700003F01F03FB603B685B093B61FB68002BB6
:1029800002D13B69013B3B617B689B6B03F0784262
:102990003B691A437B689A63354B9B881A46FB68F0
:1029A0001344FB60FB6803F01F03FB607B689B6BB9
:1029B00023F07842FB68DB061A437B689A632C4B52
:1029C0001A68FB68DB001344BB60BB685B68BA68CD
:1029D0009A4206D17B6830331946B868FFF751FF39
:1029E00041E0BB685B68303B7B617B699B6B23F09C
:1029F00078427B689B6B23F078439A4210D87B68BF
:102A00009B6B03F078427B689B6B23F078417B697A
:102A10009B6B23F07843CB1A1A437B689A6310E0D0
:102A20007B699B6B03F078427B699B6B23F0784159
:102A30007B689B6B23F07843CB1A1A437B699A63BC
:102A400008E07B695B6B303B7B617B693033BA6844
:102A50009A42CAD17B6903F130027B683033194650
:102A60001046FFF70EFF00BF1837BD4680BD00BF00
:102A7000D026002080B586B000AF78607B689B6B65
:102A8000DB0E7B61134B1A687B69DB0013443B61EF
:102A90007B685B6B3A699A4213D07B685B6B303B17
:102AA000FB60FB689B6B03F07842FB689B6B23F039
:102AB00078417B689B6B23F078430B441A43FB6897
:102AC0009A637B6830331846FFF7EAFE00BF183779
:102AD000BD4680BDD026002080B584B000AF002365
:102AE000BB604F4B9B8801335A4203F01F0302F037
:102AF0001F0258BF53429AB2494B9A80484B1A68FA
:102B0000474B9B88DB0013447B607B685B687A687B
:102B10009A4200F081807B685B68303BFB6070E02C
:102B2000FB689B887B80FB689B6B23F07843002BC2
:102B300005D0FB689B6B5A1EFB689A6366E0FB68D6
:102B400030331846FFF7ACFE7B8803F008039BB2D6
:102B5000002B12D0FB689B8823F008039AB2FB6815
:102B60009A80FB6828331846FFF79AFEFB6800221C
:102B70009A61FB680022DA6127E07B8803F48063B6
:102B80009BB2002B07D0FB689B8823F480639AB22A
:102B9000FB689A8019E07B8803F400539BB2002BFA
:102BA0000CD0FB6828331846FFF77AFEFB689B8839
:102BB00023F400539AB2FB689A8006E0FB689B8876
:102BC00023F020039AB2FB689A807B8803F002030B
:102BD0009BB2002B11D1FB689B8843F004039AB28F
:102BE000FB689A80FB6803F12802FB68DB881946C2
:102BF000104600F0CBFD0123BB607B685B68303B77
:102C0000FB60FB6830337A689A4289D1BB68002B3D
:102C100003D0FFF785FA00E000BF1037BD4680BD46
:102C2000D026002080B584B000AF414B1B68013333
:102C3000542202FB03F37B603E4B1B687968184605
:102C400002F039FA02463C4B1A603B4B1B68002BE2
:102C500001D13A4B67E0384B1B687A68002118466F
:102C60001AF0CFFB3648FFF7E3FD3648FFF7E0FDEB
:102C70003548FFF7DDFD0023FB6020E02E4B1A688E
:102C8000FB68542101FB03F3134401229A802A4B71
:102C90001A68FB68542101FB03F31344FA681A61B4
:102CA000254B1A68FB68542101FB03F313442833B6
:102CB00019462448FFF7E5FDFB680133FB60FB681C
:102CC0000F2BDBD90822002120481AF09AFB00F0D4
:102CD0002BFD4FF480737B60164B1B687968184698
:102CE00002F0E9F9B860BB68002B01D1134B1AE080
:102CF0007A680021B8681AF084FB154ABB68136033
:102D0000134B00229A800023FB6008E0B868FFF7AD
:102D10008FFDFB680133FB60BB680833BB60FB6859
:102D20001F2BF3D9002318461037BD4680BD00BFC6
:102D3000DC2600209C260020D8260020000200036C
:102D400050280020F0260020C8260020E42600207D
:102D5000D026002080B588B000AF3B1D182200218E
:102D600018461AF04EFB0C4B7B604FF4A0633B619E
:102D70000A4B7B611F233B813B1D1946084800F02D
:102D8000DFF9F861FB69002B01D0FB6900E000234B
:102D900018462037BD4680BDF928000864F20108B6
:102DA000C026002080B400AF064B1B68002B01D169
:102DB000054B02E0034B1B681B691846BD465DF8D6
:102DC000047B7047E42600200702000280B500AFB4
:102DD000414B1B68DB681B68B3F1CC3F0CD03F480C
:102DE00018F026FF3C4B1B68596A3B4B1B681B695C
:102DF0001A463B4818F01CFF374B5B681B681A46A5
:102E0000354B5B68DB689A420CD9334B5B681B68B7
:102E10001946314B5B68DA682F4B5B689B6813443B
:102E200099421AD92D4818F003FF2B4B5B68596A59
:102E3000294B5B681B691A462A4818F0F9FE274897
:102E400018F0F6FE244B5B681B681946224B5B6842
:102E5000DB681A46244818F0EBFE1F4B5B681A69C2
:102E6000224B1B7891B2214A5B0013440A465A80D8
:102E70001E4B1B785B0110331C4A1344981D164BE4
:102E80005B685B6A202219461AF097FA174B1B7889
:102E9000164A5B011344353300221A70134B1B781A
:102EA0000133DAB2114B1A70104B1B780A2B09D17F
:102EB0000E4B00221A700D4B5B7863F07F03DAB281
:102EC0000A4B5A700A4B1B68002B02D0084B1B6838
:102ED000984700BF80BD00BFE426002004F1010830
:102EE00070F2010898F20108BCF20108F8260020EF
:102EF000EC02002080B500AF4FF4AB720021074810
:102F00001AF07FFA054B0A225A70054B054A1A60DF
:102F1000054B00221A6000BF80BD00BFF8260020CC
:102F2000E8020020CD2D0008EC02002080B584B01E
:102F300000AF78600B4B1A687B68542101FB03F3E8
:102F40001344FB60FB685B69FA68126A1046984795
:102F5000FB681B69184600F069F900BF1037BD46D1
:102F600080BD00BFD826002080B588B000AF786053
:102F7000396000237B614FF0FF33BB617B68002B1E
:102F800001D1634BBFE03B68002B01D1614BBAE03C
:102F90003B681B69002B01D15F4BB4E03B681B68A9
:102FA000002B01D15D4BAEE03B689B881F2B01D904
:102FB0005B4BA8E03B689B881F2B06D13B681B68D6
:102FC000584A934201D0564B9DE03B68DB68002B8A
:102FD00003D13B684FF43472DA603B68DB68082148
:102FE000184602F0C5FF02463B68DA603B68DB68C2
:102FF000B3F5987F01D24C4B85E0FEF78BFEF8616C
:1030000019E04A4B5B68283B3B61484B5B681846BC
:10301000FFF746FC3B69283319464548FFF718FC83
:10302000444B1A683B69DB681946104602F076F893
:103030003B690022DA603D48FFF74CFC0346002B59
:10304000DFD03B48FFF746FC0346002B02D03A4B4B
:10305000BB6154E0364B5B68283B3B61344B5B689B
:103060001846FFF71DFCF869FEF75AFE3B691B691D
:103070007B613868FFF7ECF8F860FB68002B0BD138
:10308000FEF748FEF8613B69283319462848FFF7E8
:10309000DFFB2A4BBB6132E03B689A683B691A62EE
:1030A000FA683B69DA603B68DA683B699A603B69B9
:1030B00000229A613B690022DA613B6902229A8010
:1030C0003B689A883B69DA803B681A683B695A61B9
:1030D0003B694FF0FF32DA633B6900229A643B6838
:1030E0001A693B695A623B6900221A653968386976
:1030F000FFF740F87B687A691A60002303E0F869FB
:10310000FEF70EFEBB6918462037BD4680BD00BFE6
:10311000070200020102000205020002040200028E
:1031200003020002F928000806020002C826002057
:10313000F02600209C26002011020002000200035D
:10314000B0B58CB000AF786039600023FB623B689B
:10315000002B01D1304B5BE03B6807F10C041D46AE
:103160000FCD0FC495E8030084E8030007F10C03BA
:1031700019467868FFF7F8FEF862FB6A002B01D069
:10318000FB6A45E0254B1A687B681B68542101FBEC
:1031900003F31344BB62FEF7BDFD7862BB6A9B88F4
:1031A00023F002039AB2BB6A9A80BB6A9B8843F001
:1031B00004039AB2BB6A9A80BB6A03F12802BB6A15
:1031C000DB881946104600F0E1FA00F033FB0346B5
:1031D000283B134A5360134B1B68002B14D0124B2F
:1031E0001B88002B10D10E4B1A680D4B5B689A425E
:1031F0000AD00D4B1B88002B06D1786AFEF790FD94
:10320000FEF788FF002303E0786AFEF789FD0023BC
:1032100018463037BD46B0BD01020002D826002056
:10322000E4260020EC260020E026002080B586B0B1
:1032300000AF78604FF0FF337B616F4B1B687A689B
:103240009A4201D16D4BD3E06D4B1B687A689A426C
:1032500001D16C4BCCE06C4B1B687A689A4201D36D
:103260006A4BC5E0FEF756FD3861FFF79BFD02464D
:103270007B68934202D1664B00221A80654B1A6824
:103280007B68542101FB03F31344FB60FB689B88BC
:103290007B817B8903F001039BB2002B07D05E4B3F
:1032A0007B6100BF3869FEF73BFD7B69A0E07B894D
:1032B00003F010039BB2002B06D0554B1B88002B4C
:1032C00002D0534B00221A807B8903F004039BB287
:1032D000002B0CD0FB682833184600F081FAFB68FD
:1032E0009B8823F004039AB2FB689A8010E07B89E4
:1032F00003F008039BB2002B05D17B8903F4005334
:103300009BB2002B04D0FB6828331846FFF7C8FA9D
:103310007B8903F060039BB2002B02D0F868FFF7B3
:10332000A9FBFB689B8823F002039AB2FB689A8092
:10333000FB689B8843F001039AB2FB689A80FB68A4
:103340004FF0FF32DA63FB6800229A6400F072FAF1
:103350000346283B314A5360FB689B8803F0100307
:103360009BB2002B2CD0FB68283319462C48FFF762
:1033700088FA284B1A68244B1B68542101FB03F37D
:103380001344264A1360254B1B687A681A61234B45
:103390001B68FA6892889A80204B1B68FA68D2688A
:1033A000DA601E4B1B68FA68526A5A62FB68012297
:1033B0009A803869FEF7B4FCFEF7ACFE002317E0F4
:1033C000FB6801229A80FB68283319461548FFF7ED
:1033D0003FFA154B1A68FB68DB681946104601F086
:1033E0009DFEFB680022DA603869FEF799FC002335
:1033F00018461837BD4680BDC026002014020002C2
:10340000C426002021020002DC2600200702000260
:10341000E0260020D82600200A020002E426002030
:10342000C8260020F02600209C26002080B584B00D
:1034300000AF78601E4B1B68002B01D01D4B33E0A2
:103440001D4B1B88002B01D01C4B2DE07B68002BF3
:1034500003D100F0AFF8034626E0FEF75BFCF8600E
:10346000174B1B682833184600F0BAF9144B1B6839
:103470009A88134B1B6822F0040292B29A80104B78
:103480001B6879681846FFF76DFA0D4B1B689A8820
:103490000B4B1B6842F0200292B29A80F868FEF74C
:1034A0003FFCFEF73DFE002318461037BD4680BDA9
:1034B000E00200200D020003E02600200E020002C0
:1034C000E426002080B586B000AFF860B9607A606D
:1034D000184B1B687B617B692833184600F080F924
:1034E0007B699B8823F004039AB27B699A807B698D
:1034F00028333B617B699A88BB689BB213439AB2BD
:103500007B699A803969F868FFF7BBF97B68B3F18A
:10351000FF3F0AD07B699B8843F040039AB27B69E6
:103520009A8079687869FFF71DFA00BF1837BD46A1
:1035300080BD00BFE426002080B582B000AF786077
:1035400039607B6828331846FFF7AAF97B689A88A8
:103550003B689BB2DB439BB213409AB27B689A8074
:103560007B689B8803F04003002B09D07868FFF745
:1035700081FA7B689B8823F040039AB27B689A802B
:103580007B689B8803F00203002B0FD17B689B882C
:1035900043F004039AB27B689A807B6803F12802A7
:1035A0007B68DB881946104600F0F0F800BF08374A
:1035B000BD4680BD80B582B000AF00237B60244B48
:1035C0001B681A69234B1B689A4201D3224B3AE0CD
:1035D0001F4B1B689B8803F00403002B01D10023C1
:1035E00031E0FEF797FB3860194B1B68DB88184603
:1035F00000F040F978607B68012B20D9144B1B68E0
:1036000028331846FFF74CF9114B1B689A88104B6A
:103610001B6842F0040292B29A800D4B1B6803F1C2
:1036200028020B4B1B68DB881946104600F0AEF8E9
:103630003868FEF775FBFEF773FD002303E038687A
:10364000FEF76EFB054B18460837BD4680BD00BF30
:10365000E4260020DC2600200702000210020002FF
:1036600080B483B000AF78607B687A685A607B680A
:103670007A681A6000BF0C37BD465DF8047B70475E
:1036800080B483B000AF786039607B685A683B686B
:103690005A603B687A681A607B685B683A681A60AF
:1036A0007B683A685A6000BF0C37BD465DF8047B02
:1036B000704780B582B000AF786039607B681B6866
:1036C00039681846FFF7DCFF00BF0837BD4680BDEC
:1036D00080B483B000AF78607B685B687A681268FA
:1036E0001A607B681B687A6852685A607B6800229F
:1036F0005A607B6800221A6000BF0C37BD465DF837
:10370000047B704780B483B000AF78607B685B68EF
:103710007A689A420CBF01230023DBB218460C37AB
:10372000BD465DF8047B704780B582B000AF0023D2
:103730007B6000233B604FF480733B60114B1B6840
:103740003968184601F0B7FC02460F4B1A600E4B61
:103750001B68002B11D000237B600AE00A4B1A681B
:103760007B68DB0013441846FFF77AFF7B68013360
:103770007B607B681F2BF1D900E000BF0837BD4696
:1037800080BD00BF9C2600205828002080B582B054
:1037900000AF78603960104B1A683B68DB00134457
:1037A0001846FFF7AFFF0346002B08D04FF000424A
:1037B0003B68DA40094B1B681343084A1360064B09
:1037C0001A683B68DB00134479681846FFF771FFFD
:1037D00000BF0837BD4680BD58280020F0020020F9
:1037E00080B584B000AF78607868FFF771FF7B68C0
:1037F000283BFB600D4B1A68FB68DB88DB00134439
:103800001846FFF77FFF0346002B0BD0FB68DB88D1
:103810001A464FF00043D340DA43054B1B68134070
:10382000034A136000BF1037BD4680BD58280020F2
:10383000F002002080B483B000AF00237B600B4B0C
:103840001B68002B0BD0094B1B68B3FA83F37B601A
:10385000074B1A687B68DB0013445B6800E00023B9
:1038600018460C37BD465DF8047B7047F002002017
:103870005828002080B485B000AF78600023FB603A
:103880000023BB600E4B1A687B68DB0013445B6847
:10389000BB6005E0FB680133FB60BB685B68BB6035
:1038A000074B1A687B68DB001344BA689A42F1D16F
:1038B000FB6818461437BD465DF8047B704700BFAF
:1038C000582800202DE9904888B000AF08237B607D
:1038D000144B18683A1D07F108014FF0FF3300F050
:1038E000C5FDF861FB69002BF2D17B68082BEFD195
:1038F000BB68002BECD0FEF751FFC7E90401BB68A1
:10390000FA6810469847FEF749FF0A460146D7E98C
:103910000434C91A62EB04028B469446C7E904BC1E
:10392000D6E700BF6428002080B588B000AF3B1DFB
:1039300018220021184619F064FD0A4B7B604FF4F1
:1039400034733B61084B7B6100233B813B1D19466F
:103950000648FFF7F5FBF861FB6918462037BD46BE
:1039600080BD00BFC5380008F0F20108C426002061
:1039700080B588B002AF402200212B4819F041FDEC
:103980002A4B00221A604FF4E073BB60284B1B687F
:10399000B968184601F08FFB38613B69002B01D1F3
:1039A000244B3DE0BA680021386919F02AFD224A0B
:1039B0003B691360214A3B6913603B6900221A810D
:1039C0003B69FB603B691C333B610123FB820DE0DB
:1039D0003B69FA8A1A81FB683A691A603B69FB60A5
:1039E000FB8A0133FB823B691C333B61FB8A0F2B53
:1039F000EED9082300930023114A1021002000F083
:103A0000B5FA78607B68002B01D00E4B08E0FFF719
:103A10008BFF78607B68002B01D00B4B00E000230C
:103A200018461837BD4680BDF402002068280020E3
:103A30009C26002007030002602800205C2800204C
:103A4000642800200B0300020C03000280B48FB036
:103A500000AF786000237B6300233B634FF0FF33AC
:103A6000FB624FF0FF33BB6210237B6210233B628B
:103A70000023BB617B681A697B68DA607B681B89FD
:103A800003F00F03FB82FB8A9A4A52F8233003F0BB
:103A90006043B3F1C04F40F0B480FB8A954A52F8BE
:103AA0002320FB8A42F00042924941F82320FB8AFE
:103AB000904A52F8233023F07F433B610023FB837D
:103AC00054E0FB8B8B4A52F8233023F07F43FB609A
:103AD000FB68002B46D0FA8BFB8A9A4242D0FB8BC4
:103AE000844A52F8233003F04043B3F1404F39D1B8
:103AF000FA683B699A4218D3FB683A69B3FBF2F261
:103B0000396901FB02F29B1A002B0ED1FA683B695E
:103B1000B2FBF3F3FA6A9A4225D9FA683B69B2FB21
:103B2000F3F3FB62FB8B7B621DE0FA683B699A4210
:103B300019D23B69FA68B3FBF2F2F96801FB02F2B1
:103B40009B1A002B0FD13A69FB68B2FBF3F3BA6AF8
:103B50009A4208D93A69FB68B2FBF3F3BB62FB8B6C
:103B60003B6200E000BFFB8B0133FB83FB8B0F2B21
:103B7000A7D97B6A102B31D05F4B1B683B6314E0E5
:103B80003B6BDB68BA691344BB613B6B19895B4BC8
:103B900018687A6A1346DB009B1A9B0003441B8952
:103BA000994206D03B6B1B683B633B6B002BE7D114
:103BB00000E000BF3B6B002B60D07B6819693B6B5A
:103BC0001A69BB69D31A7A681269B3FBF2F002FB77
:103BD00000F29B1ACA1A7B68DA604FE03B6A102B2E
:103BE0004CD07B680022DA60444B19683A6A13466D
:103BF000DB009B1A9B000B447B637B6B1B683B6366
:103C000057E0FB8A3B4A52F8233003F06043B3F19C
:103C1000804F33D1FB8A374A52F82320FB8A42F087
:103C20000042344941F82320334B1B683B6314E0C6
:103C30003B6B1A697B681B699A420BD13B6B1B89F2
:103C400003F00F032B4A52F8233003F04043B3F143
:103C5000404F06D03B6B1B683B633B6B002BE7D1AF
:103C600000E000BF3B6B002B08D07B680022DA60CD
:103C70003B6B7B633B6B1B683B631AE01E4B1B6813
:103C80003B6311E03B6BDA687B68DB689A420FD8D4
:103C90007B68DA683B6BDB68D21A7B68DA603B6B67
:103CA0007B633B6B1B683B633B6B002BEAD100E003
:103CB00000BF7B683A6B1A603B6B002B06D03B6BF6
:103CC000DA687B68DB68D21A3B6BDA607B6B002BAF
:103CD00003D1094A7B68136002E07B6B7A681A6043
:103CE0007B6802221A7100BF3C37BD465DF8047B39
:103CF000704700BFF40200206828002060280020E0
:103D000080B483B000AF78600B4B1A687B681A6090
:103D1000094A7B6813607B6800221A717B681B89E3
:103D200003F00F03054A002142F8231000BF0C37AF
:103D3000BD465DF8047B70475C280020F40200203B
:103D400080B584B000AF274B1B68FB603EE0FB688A
:103D50001B68244A1360FB689B697B60FB685B6996
:103D6000BB60214B1868391D0023082200F0A0FB1E
:103D7000FB685B79002B17D1F868FFF7C1FFFB6880
:103D80001B894FF6DF72934206D8FB681B891033FC
:103D90009AB2FB681A8116E0FB681B8903F00F03D7
:103DA0009AB2FB681A810EE0FB685B79012B03D1A4
:103DB000F868FFF74BFE06E0FB685B79022B02D147
:103DC000FB6801221A71074B1B68FB60FB68002B24
:103DD00003D0FB68DB68002BB9D000BF1037BD46AD
:103DE00080BD00BF682800206428002080B500AF97
:103DF000084B1B68002B09D0064B1B68DA68013A98
:103E0000DA60DB68002B01D1FFF79AFF0023184628
:103E100080BD00BF6828002080B483B000AF786008
:103E20007B687A685A607B687A681A6000BF0C37D2
:103E3000BD465DF8047B704780B483B000AF786006
:103E400039607B685A683B685A603B687A681A60D8
:103E50007B685B683A681A607B683A685A6000BFA2
:103E60000C37BD465DF8047B704780B582B000AF6B
:103E7000786039607B681B6839681846FFF7DCFF9B
:103E800000BF0837BD4680BD80B483B000AF786006
:103E90007B685B687A6812681A607B681B687A685E
:103EA00052685A607B6800225A607B6800221A6060
:103EB00000BF0C37BD465DF8047B704780B483B00B
:103EC00000AF78607B685B687A689A420CBF012318
:103ED0000023DBB218460C37BD465DF8047B704703
:103EE00080B582B000AF1D4B1B684FF4DC711846E3
:103EF00001F0E1F802461A4B1A60194B1B68002BBF
:103F000001D1184B25E0164B1B684FF4DC720021E1
:103F1000184619F076FA1448FFF77EFF0023FB805D
:103F200013E00F4B1A68FB882C2101FB03F31344A9
:103F30003B603B68FA885A813B681C3319460A4843
:103F4000FFF793FFFB880133FB80FB88092BE8D93F
:103F5000002318460837BD4680BD00BF9C260020C0
:103F600074280020010600026C28002080B58AB069
:103F700000AFF8607A603B600B467B813B8E043378
:103F8000FB847B68002B01D1384B6AE03B8E4FF6F7
:103F9000FB72934201D9364B63E07B89002B02D040
:103FA0003B8E002B01D1334B5BE0334B18687B8990
:103FB000FA8C02FB03F3194601F07DF838623B6A84
:103FC000002B01D12D4B4CE0FDF7A4FEF8612C48ED
:103FD000FFF774FF0346002B0AD0F869FDF7A0FE37
:103FE000254B1B68396A184601F098F8254B38E0D4
:103FF000234B5B68BB61B869FFF746FFBB691C3B9D
:104000007B617B697A89DA807B69FA8C1A817B69AA
:104010003A6A1A607B6901229A807B6900221A82BF
:104020007B697A895A827B6900229A817B690022A6
:10403000DA817B6914331846FFF7EEFE7B691C3387
:104040001846FFF7E9FE7B6924331846FFF7E4FEC4
:10405000F869FDF765FE7B695B891A467B681A6023
:10406000002318462837BD4680BD00BF0C0600025D
:10407000030600020D0600029C2600200206000234
:104080006C2800200406000280B485B000AFF86000
:10409000B9607A603B60FB68092B01D90F4B17E0D0
:1040A000BB68002B02D07B68002B01D10C4B0FE0CA
:1040B0007B681B68002B01D10A4B09E03B68002B91
:1040C00005D0094B1B68002B01D0084B00E00023F2
:1040D00018461437BD465DF8047B70470E06000293
:1040E0000F06000210060002E0020020180600027F
:1040F00080B485B000AFF860B9607A603B60FB685F
:10410000092B01D90E4B14E0BB68002B01D10D4BDC
:104110000FE07B681B68002B01D10B4B09E03B686B
:10412000002B05D0094B1B68002B01D0084B00E089
:10413000002318461437BD465DF8047B704700BF66
:104140000E0600021206000213060002E002002022
:104150000906000280B588B000AFF860B9607A60E7
:104160003B6000237B610023FB83BB6803F00303F8
:10417000012B19D0012B02D3032B2AD03EE0FB6880
:104180009B89FB83FB689B890133FA68D288934241
:1041900003D1FB6800229A8137E0FB689B890133D9
:1041A0009AB2FB689A8130E0FB689B89002B06D1AC
:1041B000FB68DB88013B9AB2FB689A8105E0FB68EB
:1041C0009B89013B9AB2FB689A81FB689B89FB83C0
:1041D0001BE0FB68DB89FB83FB68DB890133FA6842
:1041E000D288934203D1FB680022DA810DE0FB689C
:1041F000DB8901339AB2FB68DA8106E0254817F0C3
:1042000017FD254818F032F841E0FB681B68FA8B6F
:10421000F968098901FB02F21344BB61BB6803F032
:104220000403002B0ED0BB6803F00103002B04D164
:10423000BB691A687B681A6029E07B681A68BB69E9
:104240001A6024E0BB6803F00103002B10D1FB6867
:104250001B89043BBA6913441B687B617B691A465E
:10426000B969786819F0A9F87A693B681A600EE0B4
:104270003B681B681A467968B86919F09EF8FB68B4
:104280001B89043BBA6913443A6812681A602037E4
:10429000BD4680BDFCF2010804F3010880B58AB078
:1042A00000AFF860B9607A603B6000233B62BB6896
:1042B00003F00103FB61FDF72DFD7862614B1A6885
:1042C000FB682C2101FB03F31344BB61BB699B8892
:1042D000002B02D15C4B3B62ACE0BB6803F00103F6
:1042E000002B09D13B681A68BB691B89043B9A42C1
:1042F00002D2564B3B629DE0BB6803F00103002BEA
:1043000009D03B681A68BB691B89043B9A4202D9F1
:104310004F4B3B628EE0BB69FA69083233F81230CA
:10432000002B3AD13B6B002B09D1BB6803F0010392
:10433000002B01D1474B00E0474B3B627AE0474BF3
:104340001B88002B02D0464B3B6273E0454B1B6839
:104350007B61FB690233DB00BA69134404333A6BB7
:104360004FF400511846FFF7ADF8786AFDF7D8FC16
:10437000FDF7D6FEFDF7CEFC78627B699B8803F0E3
:104380004003002B15D07B699B8823F040039AB231
:104390007B699A80344B3B624CE0BB69FA69083216
:1043A00033F81230013B99B2BB69FA69083223F83D
:1043B00012103B687A68B968B869FFF7CBFEFB69F1
:1043C000002B0CBF01230023DBB20233DB00BA69F0
:1043D000134404331846FFF771FD0346002B18D130
:1043E000FB69002B0CBF01230023DBB2BA69023347
:1043F000DB0013449B68283B3B614FF40051386954
:10440000FFF79AF8786AFDF78BFCFDF789FE002329
:1044100014E0FB69002B0CBF01230023DBB2BA6957
:1044200003F1080132F81120013291B2BA69083360
:1044300022F81310786AFDF773FC3B6A1846283798
:10444000BD4680BD742800200A0600021F06000237
:10445000150600021D06000216060002E0260020D6
:1044600006060002E42600200706000280B588B098
:1044700002AFF860B9607A603B603B687A68B968FF
:10448000F868FFF701FE78617B69002B01D07B693A
:104490000AE000233B613B6800937B68BA68396996
:1044A000F868FFF7FBFE034618461837BD4680BD87
:1044B00080B588B002AFF860B9607A603B603A1DA1
:1044C0003B68B968F868FFF713FE78617B69002BD9
:1044D00001D07B690BE003233B613A1D3B680093ED
:1044E0001346BA683969F868FFF7D8FE03461846DC
:1044F0001837BD4680BD80B483B000AF78607B685C
:104500007A685A607B687A681A6000BF0C37BD46CB
:104510005DF8047B704780B483B000AF7860396089
:104520007B685A683B685A603B687A681A607B68A7
:104530005B683A681A607B683A685A6000BF0C375B
:10454000BD465DF8047B704780B582B000AF7860EF
:1045500039607B681B6839681846FFF7DCFF00BFCD
:104560000837BD4680BD80B483B000AF78607B68FB
:104570005B687A6812681A607B681B687A685268A0
:104580005A607B6800225A607B6800221A6000BF74
:104590000C37BD465DF8047B704780B483B000AF34
:1045A00078607B685B687A689A420CBF01230023BD
:1045B000DBB218460C37BD465DF8047B704700003F
:1045C00080B582B000AF1948FFF795FF184B1B6804
:1045D0004FF4A071184600F06EFD0246154B1A60AC
:1045E000144B1B68002B01D1134B1BE00023FB80F5
:1045F00014E0104B1A68FB881B0113443B603B68B6
:10460000FA88DA803B6800221A803B680833194632
:104610000648FFF799FFFB880133FB80FB88132BCB
:10462000E7D9002318460837BD4680BD782800200A
:104630009C260020802800200007000280B58AB058
:1046400002AF03463A60FB800B46BB803B68002B01
:1046500001D1254B43E0FA88BB889A4204D9234B09
:10466000FB61234BBB6131E0FDF754FB78612148CE
:10467000FFF793FF0346002B07D07869FDF750FB47
:104680001D4BFB611A4BBB6120E01A4B5B683B6121
:104690003869FFF768FF3B69083BFB60FB68FA88F5
:1046A0005A80FB6801221A80FB68BA889A80FB68EE
:1046B00008331846FFF71FFFFB68DB881A463B6884
:1046C0001A607869FDF72CFB002308E000230093B3
:1046D0000023FA69B969094801F068FCFB691846CA
:1046E0002037BD4680BD00BF020700020807000258
:1046F000F8C3B2A1782800200307000220F30108C4
:1047000080B58AB002AF78607B68132B04D9284B40
:10471000FB61284BBB613EE0274B1A687B681B019D
:1047200013447B61FDF7F6FA38617B691B88002B27
:1047300019D13869FDF7F4FA1D4BFB611D4BBB61C4
:1047400029E07B69DB68283BFB60FB6800229A61FB
:104750000821F868FEF7F0FEFB689B8843F04003F1
:104760009AB2FB689A807B6908331846FFF715FFF9
:104770000346002BE5D07B69083319460F48FFF745
:10478000CAFE7B6900221A803869FDF7C9FAFDF775
:10479000C7FC002308E0002300930023FA69B969ED
:1047A000074801F003FCFB6918462037BD4680BD71
:1047B00001070002F8C3B2A1802800207828002059
:1047C00020F3010880B588B002AF786039607B685B
:1047D000132B09D9002300930023434A434944483B
:1047E00001F0E4FB404B7BE0424B1A687B681B0105
:1047F0001344FB60FDF78EFA7861FB681B88002B81
:104800000CD17869FDF78CFA002300930023364A17
:104810003649374801F0CAFB334B61E0FB685B88DF
:10482000002B0AD0FB685B88013B9AB2FB685A8078
:104830007869FDF775FA002352E03B68002B02D13E
:104840002D4B3B6140E02D4B1B68002B08D02C4BBF
:104850003B612C4817F0ECF92B4817F007FD33E0CB
:104860002A4B1B88002B08D0294B3B61254817F0A9
:10487000DFF9284817F0FAFC26E0274B1B68BB60DD
:10488000BB68FA689A61FB6808333A6808211846E1
:10489000FEF718FE7869FDF743FAFDF741FCBB68A7
:1048A0009B8803F04003002B0CD0FDF733FA7861AE
:1048B000BB689B8823F040039AB2BB689A80174B71
:1048C0003B6101E000230BE07869FDF729FA002342
:1048D000009300233A690549054801F067FB3B69ED
:1048E00018461837BD4680BD01070002F8C3B2A1C3
:1048F00020F301088028002004070002E0020020C5
:104900000507000234F301083CF30108E02600200B
:10491000060700025CF30108E426002007070002F6
:1049200080B588B002AF78602C4B1A687B681B0199
:1049300013447B617B68132B01D9294B49E0FDF7B8
:10494000E9F938617B691B88002B0CD13869FDF7C8
:10495000E7F9002300930023214A2249224801F06D
:1049600025FB1F4B35E07B699A887B695B889A42FF
:104970000CD13869FDF7D4F90023009300231B4ABA
:104980001849194801F012FB184B22E07B690833E3
:104990001846FFF702FE0346002B10D17B69DB6847
:1049A000283BFB60FB6800229A610821F868FEF74B
:1049B000C3FD3869FDF7B4F9FDF7B2FB08E07B6988
:1049C0005B8801339AB27B695A803869FDF7A8F990
:1049D000002318461837BD4680BD00BF8028002040
:1049E00001070002F8C3B2A120F301080807000282
:1049F00080B483B000AF78607B687A685A607B6867
:104A00007A681A6000BF0C37BD465DF8047B7047BA
:104A100080B483B000AF786039607B685A683B68C7
:104A20005A603B687A681A607B685B683A681A600B
:104A30007B683A685A6000BF0C37BD465DF8047B5E
:104A4000704780B582B000AF786039607B681B68C2
:104A500039681846FFF7DCFF00BF0837BD4680BD48
:104A600080B483B000AF78607B685B687A68126856
:104A70001A607B681B687A6852685A607B680022FB
:104A80005A607B6800221A6000BF0C37BD465DF893
:104A9000047B704780B483B000AF78607B685B684C
:104AA0007A689A420CBF01230023DBB218460C3708
:104AB000BD465DF8047B704780B582B000AF174BF0
:104AC0001B68002B01D0002324E0144B144A1A6009
:104AD0001448FFF78DFF00237B6017E00F4B196828
:104AE0007A6813465B001344DB000B443B603B6871
:104AF0007A685A603B6800221A703B68083319468E
:104B00000848FFF79EFF7B6801337B607B68132BAF
:104B1000E4D9002318460837BD4680BD3403002081
:104B2000380300208428002080B58AB002AF786066
:104B3000254B1B68002B01D1FFF7BEFF7B68002BC4
:104B400001D1224B3CE0FDF7E5F8F8612048FFF782
:104B5000A1FF0346002B11D0F869FDF7E1F81D4BCA
:104B60003B611D4BFB6000BF0023009300233A69AB
:104B7000F9681A4801F01AFA3B6921E0144B5B68A6
:104B8000BB61B869FFF76CFFBB69083B7B617B6960
:104B900000225A807B6901221A707B6900229A8266
:104BA0007B6900221A617B6908331846FFF720FFF2
:104BB0007B695A687B681A60F869FDF7B1F80023D1
:104BC00018462037BD4680BD34030020021D000278
:104BD00084280020031D0002F8C3B2A180F301085D
:104BE00080B588B002AF78607B68132B04D9264B60
:104BF0007B61264B3B6139E0254B19687A68134687
:104C00005B001344DB000B44FB60FDF783F8B860E6
:104C1000FB681B78002B07D1B868FDF781F81A4BA9
:104C20007B611A4B3B6121E0FB6808331846FFF7B4
:104C300031FF0346002B03D0FB685B88002B07D0B5
:104C4000B868FDF76DF8134B7B61104B3B610DE0CD
:104C5000FB68083319461048FFF7DAFEFB680022AC
:104C60001A70B868FDF75CF8002308E00023009391
:104C700000237A693969094801F098F97B69184677
:104C80001837BD4680BD00BF011D0002F8C3B2A1A8
:104C900034030020091D00028428002080F301084D
:104CA00080B588B002AF786039607B68132B09D972
:104CB000002300930023594A59495A4801F076F9D4
:104CC000564BA6E0584B19687A6813465B001344AC
:104CD000DB000B443B61FDF71DF8F8603B691B7876
:104CE000002B0CD1F868FDF71BF80023009300237C
:104CF0004A4A4B494B4801F059F9484B89E04B4B24
:104D00001B68002B04D0F868FDF70AF8484B80E0D8
:104D1000484B1B68BB603B695B88002B11D13B692A
:104D20005B8801339AB23B695A803B69BA681A6161
:104D3000BB68DA883B699A82F868FCF7F1FF0023C8
:104D400067E03B691B69BA689A420AD13B695B8894
:104D500001339AB23B695A80F868FCF7E1FF0023FF
:104D600057E03B68002B04D1F868FCF7D9FF324BC1
:104D70004FE0324B1B88002B0CD0314B7B6131480C
:104D800016F056FF304817F071FA00BFF868FCF7CC
:104D9000C7FF35E0BB683A69DA613B691B69DA88AD
:104DA000BB68DB889A4207D93B691A69BB68DB8814
:104DB00019461046FDF7A3FD3B6908333A68082100
:104DC0001846FEF77FFBF868FCF7AAFFFDF7A8F985
:104DD000BB689B8803F04003002B0FD0FCF79AFFC1
:104DE000F860BB689B8823F040039AB2BB689A8046
:104DF000F868FCF795FF154B7B6101E0002308E0A4
:104E00000023009300237A690549064801F0CEF893
:104E10007B6918461837BD4680BD00BF011D0002E2
:104E2000F8C3B2A180F3010834030020E00200209F
:104E3000051D0002E4260020041D0002E0260020DB
:104E4000061D000294F301089CF30108071D0002EF
:104E500080B588B002AF7860404B19687A68134615
:104E60005B001344DB000B447B61FCF753FF3861AC
:104E70007B68132B03D87B691B78002B0CD1386916
:104E8000FCF74EFF002300930023354A354936488E
:104E900001F08CF8324B5DE0344B1B68FB607B69A2
:104EA0005B88002B04D07B691B69FA689A420CD09E
:104EB0003869FCF735FF002300930023284A29496D
:104EC000294801F073F8264B44E07B695B88013B7D
:104ED0009AB27B695A807B695B88002B04D0386961
:104EE000FCF71EFF002335E07B691B69DA887B69CC
:104EF0009B8A9A4207D07B691A697B699B8A19460B
:104F00001046FDF7FCFC7B6908331846FFF7C2FD2D
:104F10000346002B1AD17B69DB68283BBB607B69A9
:104F200001225A807B69BA681A61BB68DA887B699A
:104F30009A82BB680022DA610821B868FEF7FCFAA1
:104F40003869FCF7EDFEFDF7EBF802E03869FCF795
:104F5000E7FE002318461837BD4680BD3403002005
:104F6000011D0002F8C3B2A180F30108E42600206D
:104F700080B584B000AF786039607B6803F00303CC
:104F80003A68D31A3B603B6823F003033B607B68BD
:104F900023F003037B607B68002B03D03B68B3F5F1
:104FA0000C7F01D8012314E07B68FB60F86800F0F7
:104FB00012FCFB6803F50C713B68A3F50C731A46F1
:104FC000F86800F02DFC0346002B01D0012300E01F
:104FD000002318461037BD4680BD000080B582B062
:104FE00000AF1A4B7B607B681B6818467B685A6869
:104FF0007B681B68D31A1946FFF7BAFF38603B6815
:10500000002B01D03B681DE07B681B681A46104BE3
:105010001A607B6808337B600FE00D4B18687B6873
:105020001B6819467B685A687B681B68D31A1A4646
:1050300000F0F6FB7B6808337B607B685B68002BC5
:10504000EBD1002318460837BD4680BD78790208A9
:105050009C26002080B584B000AFF860B9607A600B
:10506000BA687968F86800F0DBFC03461846103728
:10507000BD4680BD80B582B000AF786039603968C8
:10508000786800F023FD034618460837BD4680BD0A
:1050900080B582B000AF786039603968786800F018
:1050A00024FD0346002B01D0002300E00123184615
:1050B0000837BD4680BD80B584B000AF78603960E8
:1050C0000023FB603B68002B01D1FB6812E07B688A
:1050D000002B01D1FB680DE03968786800F07CFE98
:1050E000F860FB68002B04D139687868FFF7C2FFCD
:1050F000F860FB6818461037BD4680BD80B584B0A7
:1051000000AFF860B9607A607A68B968F868FFF74C
:10511000A1FF034618461037BD4680BD80B584B058
:1051200000AF786039600023FB607B68002B02D001
:105130003B68002B01D1012312E03968786800F048
:10514000C2FEF860FB68012B04D039687868FFF76D
:105150009FFFF860FB68012B14BF01230023DBB223
:1051600018461037BD4680BD80B483B000AF78606C
:105170007B6803F5F87318460C37BD465DF8047B71
:10518000704780B483B000AF78607B687A685A60FB
:105190007B685A687B681A6000BF0C37BD465DF8B3
:1051A000047B704780B485B000AFF860B9607A6066
:1051B0007B68FA681A607B68BA685A60FB687A682C
:1051C0005A60BB687A681A6000BF1437BD465DF844
:1051D000047B704780B582B000AF786039607B682F
:1051E0001B683A6879681846FFF7DCFF00BF08378C
:1051F000BD4680BD80B483B000AF78607B681B681B
:105200007A6852685A607B685B687A6812681A60CC
:1052100000BF0C37BD465DF8047B704780B483B097
:1052200000AF78607B681B687A689A420CBF0123E4
:105230000023DBB218460C37BD465DF8047B70478F
:1052400080B483B000AF78607B685B6803F00103D3
:10525000002B0CBF01230023DBB218460C37BD46E0
:105260005DF8047B704780B483B000AF78607B68E2
:105270005B6843F001027B685A6000BF0C37BD4693
:105280005DF8047B704780B483B000AF78607B68C2
:105290005B6823F001027B685A6000BF0C37BD4693
:1052A0005DF8047B704780B483B000AF78607B68A2
:1052B0005B6823F001037A68134418460C37BD4637
:1052C0005DF8047B704780B483B000AF78607B6882
:1052D0001B6818460C37BD465DF8047B704780B4E8
:1052E00083B000AF78607B68083318460C37BD4642
:1052F0005DF8047B704780B485B000AF78607B6850
:1053000053F8043CFB60FB6803F00103002B02D060
:105310007B68083B00E0FB6818461437BD465DF823
:10532000047B704780B483B000AF786039607B68DD
:10533000043B3A681A6000BF0C37BD465DF8047B39
:10534000704780B483B000AF7860002318460C37F4
:10535000BD465DF8047B704780B483B000AF7860D1
:105360007B68B3FA83F3C3F11F0318460C37BD46BD
:105370005DF8047B704780B483B000AF786039601B
:105380003B68023B7A6822FA03F3043B18460C3769
:10539000BD465DF8047B704780B584B000AF78608F
:1053A00039603B685B681846FFF7D6FFF8603B68DA
:1053B0005B68F9681846FFF7DEFFB860FB681C2BD6
:1053C00002DD4FF0FF3349E07B681B680121FA687A
:1053D00001FA02F21A437B681A60FB68043B7A68A0
:1053E00013441B795AB20121BB6801FA03F35BB283
:1053F00013435AB2FB68043BD1B27A6813440A469D
:105400001A71FB68043BFB607B68FA689100BA681C
:105410000A44083253F82230002B0ED13B6808337F
:105420001846FFF7AEFE7B68FA689100BA680A4436
:105430000832396843F822100FE07B68FA6891005F
:10544000BA680A44083253F8223003F108023B6874
:10545000083319461046FFF7BDFE002318461037E3
:10546000BD4680BD80B584B000AF786039603B68D0
:105470005B681846FFF770FFF8603B685B68F96887
:105480001846FFF778FFB860FB68043BFB603B6899
:1054900008331846FFF7C2FE0346002B1CD17B6879
:1054A000FA689100BA680A44083253F822303A6820
:1054B0009A420BD13B68DB68A3F108017B68FA686C
:1054C0009000BA680244083243F822103B6808335F
:1054D0001846FFF78FFE30E07B68FA689100BA68E3
:1054E0000A440832002143F822107A68FB6813440A
:1054F00004331B785AB20121BB6801FA03F35BB293
:10550000DB435BB213405BB2D9B27A68FB681344E9
:1055100004330A461A707A68FB68134404331B7814
:10552000002B0AD17B681B68FA680432012101FA5A
:1055300002F2D2431A407B681A601037BD4680BD24
:1055400080B586B000AF786039603868FFF704FF37
:1055500078617B69023B012202FA03F31A463B6839
:105560001344013B3B603868FFF7F6FE78617969C8
:105570003868FFF700FFF8607B691D2B01DD002311
:1055800041E07B69043B7A6813441B7919464FF06C
:10559000FF32FB6802FA03F30B403B613B69002BCF
:1055A0001ED17B681A687B6901334FF0FF3101FA25
:1055B00003F31340BB60BB68002B01D1002322E042
:1055C000BB68DA43BB68013B1340B3FA83F3C3F112
:1055D00020037B617B69043B7A6813441B793B6140
:1055E0003B69DA433B69013B1340B3FA83F3C3F1F0
:1055F0002003FB607B691A1F7B689100FA680A44EC
:10560000083253F8223018461837BD4680BD80B4A2
:1056100083B000AF786039607B681B685A1C7B6878
:105620001A607B685A683B685B681344A3F1080200
:105630007B685A6000BF0C37BD465DF8047B70473D
:1056400080B483B000AF786039607B681B685A1EF5
:105650007B681A607B685A683B685B68D31A03F101
:1056600008027B685A6000BF0C37BD465DF8047BBA
:1056700070472DE9900883B000AF786039607B688F
:105680009B685A1C7B689A607B68DA683B685B6839
:105690001A447B68DA607B68D3E906124B1C42F13E
:1056A00000047A68C2E906347B68D3E908123B68D3
:1056B0005B689B464FF0000C1BEB01034CEB0204B4
:1056C0007A68C2E908347B68DA687B681B699A42A9
:1056D00003D97B68DA687B681A6100BF0C37BD4666
:1056E000BDE8900870472DE9900883B000AF78605E
:1056F00039607B689B685A1E7B689A607B68DA68B1
:105700003B685B68D21A7B68DA607B68D3E90A126F
:105710004B1C42F100047A68C2E90A347B68D3E981
:105720000C123B685B689B464FF0000C1BEB0103BF
:105730004CEB02047A68C2E90C3400BF0C37BD465A
:10574000BDE89008704780B582B000AF78603960DE
:105750007B6839681846FFF71FFE0346002B02D00E
:105760004FF0FF3307E07B6803F5DC7339681846B8
:10577000FFF74DFF002318460837BD4680BD80B5B2
:1057800082B000AF786039607B6839681846FFF7EF
:1057900069FE7B6803F5DC7339681846FFF750FF34
:1057A00000BF0837BD4680BD80B584B000AF7860CB
:1057B00039607B6839681846FFF7C2FEF860FB68FD
:1057C000002B03D0F9687868FFF7D9FFFB6818460B
:1057D0001037BD4680BD80B584B000AF78607B686F
:1057E000002B02D14FF0FF3316E04FF40C72002172
:1057F000786817F006FE7B6803F5DA731846FFF742
:1058000093F9F860FB68002B01D0FB6804E07B682B
:105810001846FFF796FD002318461037BD4680BD99
:1058200080B588B000AFF860B9607A60FB68002B83
:1058300002D0BB68002B02D14FF0FF3371E0BB6890
:1058400003F003037A68D31A7B607B6823F00303B9
:105850007B60BB6823F00303BB60BA687B681344BA
:10586000BA689A4202D94FF0FF335AE07B68272B7F
:1058700002D84FF0FF3354E0FB68D3F8B4314FF057
:10588000FF311846FFF70CFA0346FB61FB69002B5A
:1058900001D0FB6945E0BB68BB61BB697A685A60AF
:1058A000FB68D3F8B021BB691A60FB68BA69C3F81A
:1058B000B021BB6908337B617B6900221A607B6978
:1058C00008225A607869FFF7CEFC7869FFF7EBFC95
:1058D0007861BB6903F108027B691A607B68A3F1F8
:1058E00018027B695A607969F868FFF72CFF034654
:1058F000002B02D04FF0FF3313E07869FFF7D3FCA1
:1059000038613B697A691A603B6908225A603869D4
:10591000FFF7A9FCFB68D3F8B4311846FFF798FAF3
:10592000002318462037BD4680BD80B58AB000AF41
:10593000F860B9607A603B60B868FFF7D0FC386205
:105940003A6A7B6813445A1E7B685B421340FB61D2
:10595000BB687B62FA693B6A9A4227D0FA69BB68E6
:10596000D31A182B04D8B968F869FFF7DBFC1DE0DF
:10597000FB69083B7B627B6ABA681A60BB685B683C
:10598000796ABA688A1A9A1A7B6A5A60786AFFF743
:105990008AFC02467B6A13607A6ABB68D31A1A468D
:1059A000BB685A60B968F868FFF7CDFE7B6A5B6830
:1059B000F9697A6A8A1A9B1ABB61BA693B68D31A79
:1059C0000F2B1ED97B6A5A683968BB69CB1A1A44F7
:1059D0007B6A5A60FA693B681344BB60BB687A6AA9
:1059E0001A60BA693B68D21ABB685A60B868FFF798
:1059F0005AFC78617B69BA681A60B968F868FFF781
:105A0000A2FEFB6803F5DC73796A1846FFF731FEE6
:105A1000786AFFF728FCFB6918462837BD4680BD29
:105A200080B586B000AFF860B9607A6000237B6112
:105A3000FB68002B01D1002344E0BB685A1EBB6801
:105A40001340002B01D000233CE07B68002B01D0E9
:105A50007B6800E001237B60BB68042B38BF042314
:105A6000BB607B68072B01D808237B607B6803330E
:105A700023F003037B60FB68D3F8B4314FF0FF31B0
:105A80001846FFF70DF90346002B01D0002319E05B
:105A90007A68BB68134404331946F868FFF784FE3C
:105AA00038613B69002B06D07B68BA683969F868B1
:105AB000FFF73BFF7861FB68D3F8B4311846FFF776
:105AC000C7F97B6918461837BD4680BD80B582B0DE
:105AD00000AF786039603A6804217868FFF7A0FF6A
:105AE000034618460837BD4680BD80B586B000AF76
:105AF000786039607B68002B02D14FF0FF335EE0A5
:105B00003B68002B01D1002359E03868FFF7F3FB15
:105B100078617B68D3F8B4314FF0FF311846FFF756
:105B2000BFF80346002B02D04FF0FF3347E07869FF
:105B3000FFF7A9FB7B6803F5DC7379691846FFF76B
:105B4000D2FD7869FFF7BFFBF8607869FFF7ABFB20
:105B50003861F868FFF774FB0346002B0CD0F96836
:105B60007868FFF70CFEFB685A687B695B681A442B
:105B7000FB685A60FB687B613869FFF761FB03468D
:105B8000002B0ED039697868FFF7F9FD7B695A68F8
:105B90003B695B681A447B695A607869FFF783FB4D
:105BA00038613B697A691A6079697868FFF7CBFDDB
:105BB0007B68D3F8B4311846FFF74AF9002318463A
:105BC0001837BD4680BD80B483B000AF78607B6875
:105BD0001B6818460C37BD465DF8047B704780B4DF
:105BE00083B000AF786039607B681B683A689A427E
:105BF00001D3002311E03B685B097A689B001344E2
:105C00005A683B6803F01F0322FA03F303F0010311
:105C1000002B14BF01230023DBB218460C37BD460E
:105C20005DF8047B704780B485B000AF7860396060
:105C30007B681A1D3B685B099B001344FB607B6813
:105C40001B683A689A420CD2FB681A683B6803F0FA
:105C50001F03012101FA03F3DB431A40FB681A60BA
:105C600000E000BF1437BD465DF8047B704780B488
:105C700089B000AF78607B681B681F335B09FB60ED
:105C80007B680433BB6100233B610023FB6129E097
:105C9000BB691B68B3F1FF3F06D1FB690133FB61B0
:105CA000BB690433BB611DE0BB691B68DB437B61DF
:105CB00005E07B695B087B613B6901333B617B6984
:105CC000002BF6D1BB691A683B69013B012101FA3F
:105CD00003F31A43BB691A60FB695A013B69134419
:105CE000013B05E0FA69FB689A42D1D34FF0FF33DC
:105CF00018462437BD465DF8047B704780B584B0F4
:105D000000AF78607B689B681846FFF7B0FFF860CB
:105D1000FB68002B01DA002307E07B685A687B6888
:105D20001B68F96801FB03F3134418461037BD469E
:105D300080BD80B586B000AF786039603B687B611C
:105D40007B697A6852689B1A3B617B681B683A6979
:105D5000B2FBF3F3FB607B681A683B69B3FBF2F1BB
:105D600002FB01F29B1A002B11D17B689B6818463D
:105D7000FFF729FF0246FB68934208D27B689B68C5
:105D8000F9681846FFF72BFF0346002B01D10023CB
:105D900006E07B689B68F9681846FFF744FF01231B
:105DA00018461837BD4680BD80B483B000AF786018
:105DB00039607B684DF6DE621A803B68DAB27B6838
:105DC0009A707B680022DA707B68043318460C37BF
:105DD000BD465DF8047B704780B588B000AF786041
:105DE00039600023FB617868FFF7BEF97861002312
:105DF0003B610023BB613B68802B01D900235EE03F
:105E00000023BB6157E07A69BB691B0113441B681F
:105E10003A689A424CD8FBF77DFFF8607A69BB6913
:105E20001B01134408331A687969BB691B010B44D1
:105E300004331B689A4204D3F868FBF771FF002310
:105E40003DE07A69BB691B0113440C331B68002BCE
:105E500004D1F868FBF764FF002330E0BB691B0145
